{
  "contractName": "Catalogo",
  "abi": [
    {
      "constant": false,
      "inputs": [],
      "name": "Ownable",
      "outputs": [],
      "payable": false,
      "stateMutability": "nonpayable",
      "type": "function"
    },
    {
      "constant": true,
      "inputs": [
        {
          "name": "",
          "type": "uint256"
        }
      ],
      "name": "articles",
      "outputs": [
        {
          "name": "id",
          "type": "uint256"
        },
        {
          "name": "venditore",
          "type": "address"
        },
        {
          "name": "acquirente",
          "type": "address"
        },
        {
          "name": "name",
          "type": "string"
        },
        {
          "name": "descrizione",
          "type": "string"
        },
        {
          "name": "prezzo",
          "type": "uint256"
        }
      ],
      "payable": false,
      "stateMutability": "view",
      "type": "function"
    },
    {
      "anonymous": false,
      "inputs": [
        {
          "indexed": true,
          "name": "_id",
          "type": "uint256"
        },
        {
          "indexed": true,
          "name": "_venditore",
          "type": "address"
        },
        {
          "indexed": false,
          "name": "_name",
          "type": "string"
        },
        {
          "indexed": false,
          "name": "_prezzo",
          "type": "uint256"
        }
      ],
      "name": "LogVendiArticolo",
      "type": "event"
    },
    {
      "anonymous": false,
      "inputs": [
        {
          "indexed": true,
          "name": "_id",
          "type": "uint256"
        },
        {
          "indexed": true,
          "name": "_venditore",
          "type": "address"
        },
        {
          "indexed": true,
          "name": "_acquirente",
          "type": "address"
        },
        {
          "indexed": false,
          "name": "_name",
          "type": "string"
        },
        {
          "indexed": false,
          "name": "_prezzo",
          "type": "uint256"
        }
      ],
      "name": "LogCompraArticolo",
      "type": "event"
    },
    {
      "constant": false,
      "inputs": [],
      "name": "kill",
      "outputs": [],
      "payable": false,
      "stateMutability": "nonpayable",
      "type": "function"
    },
    {
      "constant": false,
      "inputs": [
        {
          "name": "_name",
          "type": "string"
        },
        {
          "name": "_descrizione",
          "type": "string"
        },
        {
          "name": "_prezzo",
          "type": "uint256"
        }
      ],
      "name": "vendiArticolo",
      "outputs": [],
      "payable": false,
      "stateMutability": "nonpayable",
      "type": "function"
    },
    {
      "constant": true,
      "inputs": [],
      "name": "getNumeroDiArticoli",
      "outputs": [
        {
          "name": "",
          "type": "uint256"
        }
      ],
      "payable": false,
      "stateMutability": "view",
      "type": "function"
    },
    {
      "constant": true,
      "inputs": [],
      "name": "getArticoliPerLaVendita",
      "outputs": [
        {
          "name": "",
          "type": "uint256[]"
        }
      ],
      "payable": false,
      "stateMutability": "view",
      "type": "function"
    },
    {
      "constant": false,
      "inputs": [
        {
          "name": "_id",
          "type": "uint256"
        }
      ],
      "name": "compraArticolo",
      "outputs": [],
      "payable": true,
      "stateMutability": "payable",
      "type": "function"
    }
  ],
  "bytecode": "0x608060405234801561001057600080fd5b50610d9a806100206000396000f300608060405260043610610083576000357c0100000000000000000000000000000000000000000000000000000000900463ffffffff16806341c0e1b5146100885780634dad9b301461009f57806367378c06146100bf5780638afc360514610178578063b63c54841461018f578063c91122e8146101ba578063edcfafe614610226575b600080fd5b34801561009457600080fd5b5061009d6103ac565b005b6100bd60048036038101908080359060200190929190505050610441565b005b3480156100cb57600080fd5b50610176600480360381019080803590602001908201803590602001908080601f0160208091040260200160405190810160405280939291908181526020018383808284378201915050505050509192919290803590602001908201803590602001908080601f016020809104026020016040519081016040528093929190818152602001838380828437820191505050505050919291929080359060200190929190505050610730565b005b34801561018457600080fd5b5061018d610956565b005b34801561019b57600080fd5b506101a4610998565b6040518082815260200191505060405180910390f35b3480156101c657600080fd5b506101cf6109a2565b6040518080602001828103825283818151815260200191508051906020019060200280838360005b838110156102125780820151818401526020810190506101f7565b505050509050019250505060405180910390f35b34801561023257600080fd5b5061025160048036038101908080359060200190929190505050610b1d565b604051808781526020018673ffffffffffffffffffffffffffffffffffffffff1673ffffffffffffffffffffffffffffffffffffffff1681526020018573ffffffffffffffffffffffffffffffffffffffff1673ffffffffffffffffffffffffffffffffffffffff1681526020018060200180602001848152602001838103835286818151815260200191508051906020019080838360005b838110156103055780820151818401526020810190506102ea565b50505050905090810190601f1680156103325780820380516001836020036101000a031916815260200191505b50838103825285818151815260200191508051906020019080838360005b8381101561036b578082015181840152602081019050610350565b50505050905090810190601f1680156103985780820380516001836020036101000a031916815260200191505b509850505050505050505060405180910390f35b6000809054906101000a900473ffffffffffffffffffffffffffffffffffffffff1673ffffffffffffffffffffffffffffffffffffffff163373ffffffffffffffffffffffffffffffffffffffff1614151561040757600080fd5b6000809054906101000a900473ffffffffffffffffffffffffffffffffffffffff1673ffffffffffffffffffffffffffffffffffffffff16ff5b60008060025411151561045357600080fd5b60008211801561046557506002548211155b151561047057600080fd5b60016000838152602001908152602001600020905060008160020160009054906101000a900473ffffffffffffffffffffffffffffffffffffffff1673ffffffffffffffffffffffffffffffffffffffff161415156104ce57600080fd5b8060010160009054906101000a900473ffffffffffffffffffffffffffffffffffffffff1673ffffffffffffffffffffffffffffffffffffffff163373ffffffffffffffffffffffffffffffffffffffff161415151561052d57600080fd5b80600501543414151561053f57600080fd5b338160020160006101000a81548173ffffffffffffffffffffffffffffffffffffffff021916908373ffffffffffffffffffffffffffffffffffffffff1602179055508060010160009054906101000a900473ffffffffffffffffffffffffffffffffffffffff1673ffffffffffffffffffffffffffffffffffffffff166108fc349081150290604051600060405180830381858888f193505050501580156105ec573d6000803e3d6000fd5b508060020160009054906101000a900473ffffffffffffffffffffffffffffffffffffffff1673ffffffffffffffffffffffffffffffffffffffff168160010160009054906101000a900473ffffffffffffffffffffffffffffffffffffffff1673ffffffffffffffffffffffffffffffffffffffff16837f41e339d06bcf17210f37a21a210a07041c600208c791916e6cc80047ea7c5340846003018560050154604051808060200183815260200182810382528481815460018160011615610100020316600290048152602001915080546001816001161561010002031660029004801561071d5780601f106106f25761010080835404028352916020019161071d565b820191906000526020600020905b81548152906001019060200180831161070057829003601f168201915b5050935050505060405180910390a45050565b60026000815480929190600101919050555060c06040519081016040528060025481526020013373ffffffffffffffffffffffffffffffffffffffff168152602001600073ffffffffffffffffffffffffffffffffffffffff168152602001848152602001838152602001828152506001600060025481526020019081526020016000206000820151816000015560208201518160010160006101000a81548173ffffffffffffffffffffffffffffffffffffffff021916908373ffffffffffffffffffffffffffffffffffffffff16021790555060408201518160020160006101000a81548173ffffffffffffffffffffffffffffffffffffffff021916908373ffffffffffffffffffffffffffffffffffffffff1602179055506060820151816003019080519060200190610868929190610cc9565b506080820151816004019080519060200190610885929190610cc9565b5060a082015181600501559050503373ffffffffffffffffffffffffffffffffffffffff166002547f16f318f564646cdddadf8b8009519623852e1fcd062b98defbb672c3fbb6c88185846040518080602001838152602001828103825284818151815260200191508051906020019080838360005b838110156109165780820151818401526020810190506108fb565b50505050905090810190601f1680156109435780820380516001836020036101000a031916815260200191505b50935050505060405180910390a3505050565b336000806101000a81548173ffffffffffffffffffffffffffffffffffffffff021916908373ffffffffffffffffffffffffffffffffffffffff160217905550565b6000600254905090565b606080600080606060006002546040519080825280602002602001820160405280156109dd5781602001602082028038833980820191505090505b50945060009350600192505b60025483111515610a925760006001600085815260200190815260200160002060020160009054906101000a900473ffffffffffffffffffffffffffffffffffffffff1673ffffffffffffffffffffffffffffffffffffffff161415610a855760016000848152602001908152602001600020600001548585815181101515610a6e57fe5b906020019060200201818152505083806001019450505b82806001019350506109e9565b83604051908082528060200260200182016040528015610ac15781602001602082028038833980820191505090505b509150600090505b83811015610b12578481815181101515610adf57fe5b906020019060200201518282815181101515610af757fe5b90602001906020020181815250508080600101915050610ac9565b819550505050505090565b60016020528060005260406000206000915090508060000154908060010160009054906101000a900473ffffffffffffffffffffffffffffffffffffffff16908060020160009054906101000a900473ffffffffffffffffffffffffffffffffffffffff1690806003018054600181600116156101000203166002900480601f016020809104026020016040519081016040528092919081815260200182805460018160011615610100020316600290048015610c1b5780601f10610bf057610100808354040283529160200191610c1b565b820191906000526020600020905b815481529060010190602001808311610bfe57829003601f168201915b505050505090806004018054600181600116156101000203166002900480601f016020809104026020016040519081016040528092919081815260200182805460018160011615610100020316600290048015610cb95780601f10610c8e57610100808354040283529160200191610cb9565b820191906000526020600020905b815481529060010190602001808311610c9c57829003601f168201915b5050505050908060050154905086565b828054600181600116156101000203166002900490600052602060002090601f016020900481019282601f10610d0a57805160ff1916838001178555610d38565b82800160010185558215610d38579182015b82811115610d37578251825591602001919060010190610d1c565b5b509050610d459190610d49565b5090565b610d6b91905b80821115610d67576000816000905550600101610d4f565b5090565b905600a165627a7a72305820837ca618e2b710f95c1cf52f2428ef67a79d10761f7006af9c98adb7decedcba0029",
  "source": "pragma solidity ^0.4.18;\n\nimport \"./Proprietario.sol\";\n\ncontract Catalogo is Proprietario {\n  // settare le variabili\n  struct Article {\n    uint id;\n    address venditore;\n    address acquirente;\n    string name;\n    string descrizione;\n    uint256 prezzo;\n  }\n\n  // variabili di stato\n  mapping (uint => Article) public articles;\n  uint articoloCounter;\n\n  // eventi\n  event LogVendiArticolo(\n    uint indexed _id,\n    address indexed _venditore,\n    string _name,\n    uint256 _prezzo\n  );\n  event LogCompraArticolo(\n    uint indexed _id,\n    address indexed _venditore,\n    address indexed _acquirente,\n    string _name,\n    uint256 _prezzo\n  );\n\n  // disattivare il contratto\n  function kill() public onlyOwner {\n    selfdestruct(owner);\n  }\n\n  // vendere un articolo\n  function vendiArticolo(string _name, string _descrizione, uint256 _prezzo) public {\n    // un nuovo articolo\n    articoloCounter++;\n\n    // salvare nell'array questo articolo\n    articles[articoloCounter] = Article(\n      articoloCounter,\n      msg.sender,\n      0x0,\n      _name,\n      _descrizione,\n      _prezzo\n    );\n\n    LogVendiArticolo(articoloCounter, msg.sender, _name, _prezzo);\n  }\n\n  // recuperare il numero di articoli nel contratto\n  function getNumeroDiArticoli() public view returns (uint) {\n    return articoloCounter;\n  }\n\n  // recuperare tutti gli ID degli articoli che sono ancora in vendita\n  function getArticoliPerLaVendita() public view returns (uint[]) {\n    // preparare l'output per l'array\n    uint[] memory articleIds = new uint[](articoloCounter);\n\n    uint numeroDiArticoliPerLaVendita = 0;\n    // iterazione sugli articoli\n    for(uint i = 1; i <= articoloCounter;  i++) {\n      // mantenere l'ID se l'articolo è ancora in vendita\n      if(articles[i].acquirente == 0x0) {\n        articleIds[numeroDiArticoliPerLaVendita] = articles[i].id;\n        numeroDiArticoliPerLaVendita++;\n      }\n    }\n\n    // copiare l'id dell'articolo in un array \"per la vendita\" più piccolo\n    uint[] memory perLaVendita = new uint[](numeroDiArticoliPerLaVendita);\n    for(uint j = 0; j < numeroDiArticoliPerLaVendita; j++) {\n      perLaVendita[j] = articleIds[j];\n    }\n    return perLaVendita;\n  }\n\n  // comprare un articolo\n  function compraArticolo(uint _id) payable public {\n    // controllo se c'è un articolo per la vendita\n    require(articoloCounter > 0);\n\n    // controllo se esiste un articolo\n    require(_id > 0 && _id <= articoloCounter);\n\n    // recuperare un articolo\n    Article storage article = articles[_id];\n\n    // controllare se un articolo non è stato ancora venduto\n    require(article.acquirente == 0X0);\n\n    // non permettere al venditore di comprare un proprio articolo\n    require(msg.sender != article.venditore);\n\n    //controllare se il prezzo per acquistare un articolo corrisponde al prezzo di vendita\n    require(msg.value == article.prezzo);\n\n    // acquisire le info sull'acquirente\n    article.acquirente = msg.sender;\n\n    // l'acquirente può pagare il venditore\n    article.venditore.transfer(msg.value);\n\n    // innescare un evento\n    LogCompraArticolo(_id, article.venditore, article.acquirente, article.name, article.prezzo);\n  }\n}\n",
  "sourcePath": "C:\\dappstart\\contracts\\Catalogo.sol",
  "compiler": {
    "name": "solc",
    "version": "0.4.25+commit.59dbf8f1.Emscripten.clang"
  },
  "schemaVersion": "2.0.2",
  "updatedAt": "2019-02-03T14:53:31.799Z"
}