{
  "contractName": "Proprietario",
  "abi": [
    {
      "constant": false,
      "inputs": [],
      "name": "Ownable",
      "outputs": [],
      "payable": false,
      "stateMutability": "nonpayable",
      "type": "function"
    }
  ],
  "bytecode": "0x6080604052348015600f57600080fd5b5060c68061001e6000396000f300608060405260043610603f576000357c0100000000000000000000000000000000000000000000000000000000900463ffffffff1680638afc3605146044575b600080fd5b348015604f57600080fd5b5060566058565b005b336000806101000a81548173ffffffffffffffffffffffffffffffffffffffff021916908373ffffffffffffffffffffffffffffffffffffffff1602179055505600a165627a7a723058205d91239b409358b3a85daddaab9a903844643c3e3b89150025c20966d70020fd0029",
  "source": "pragma solidity ^0.4.18;\n\ncontract Proprietario {\n  // variabili di stato\n  address owner;\n\n  // modificatori\n  modifier onlyOwner() {\n    require(msg.sender == owner);\n    _;\n  }\n\n  // costruttore\n  function Ownable() public {\n    owner = msg.sender;\n  }\n}\n",
  "sourcePath": "C:\\dappstart\\contracts\\Proprietario.sol",
  "compiler": {
    "name": "solc",
    "version": "0.4.25+commit.59dbf8f1.Emscripten.clang"
  },
  "schemaVersion": "2.0.2",
  "updatedAt": "2019-02-03T14:53:30.888Z"
}